{
  "_format": "hh-sol-artifact-1",
  "contractName": "MediChain",
  "sourceName": "contracts/MediChain.sol",
  "abi": [
    {
      "inputs": [],
      "stateMutability": "nonpayable",
      "type": "constructor"
    },
    {
      "inputs": [
        {
          "internalType": "uint256",
          "name": "_id",
          "type": "uint256"
        }
      ],
      "name": "approveClaimsByInsurer",
      "outputs": [],
      "stateMutability": "payable",
      "type": "function"
    },
    {
      "inputs": [
        {
          "internalType": "uint256",
          "name": "_id",
          "type": "uint256"
        }
      ],
      "name": "buyPolicy",
      "outputs": [],
      "stateMutability": "payable",
      "type": "function"
    },
    {
      "inputs": [
        {
          "internalType": "uint256",
          "name": "",
          "type": "uint256"
        }
      ],
      "name": "claims",
      "outputs": [
        {
          "internalType": "address",
          "name": "doctor",
          "type": "address"
        },
        {
          "internalType": "address",
          "name": "patient",
          "type": "address"
        },
        {
          "internalType": "address",
          "name": "insurer",
          "type": "address"
        },
        {
          "internalType": "string",
          "name": "policyName",
          "type": "string"
        },
        {
          "internalType": "string",
          "name": "record",
          "type": "string"
        },
        {
          "internalType": "uint256",
          "name": "valueClaimed",
          "type": "uint256"
        },
        {
          "internalType": "bool",
          "name": "approved",
          "type": "bool"
        },
        {
          "internalType": "bool",
          "name": "rejected",
          "type": "bool"
        },
        {
          "internalType": "uint256",
          "name": "transactionId",
          "type": "uint256"
        }
      ],
      "stateMutability": "view",
      "type": "function"
    },
    {
      "inputs": [],
      "name": "claimsCount",
      "outputs": [
        {
          "internalType": "uint256",
          "name": "",
          "type": "uint256"
        }
      ],
      "stateMutability": "view",
      "type": "function"
    },
    {
      "inputs": [
        {
          "internalType": "string",
          "name": "_name",
          "type": "string"
        },
        {
          "internalType": "uint256",
          "name": "_coverValue",
          "type": "uint256"
        },
        {
          "internalType": "uint256",
          "name": "_timePeriod",
          "type": "uint256"
        },
        {
          "internalType": "uint256",
          "name": "_premium",
          "type": "uint256"
        }
      ],
      "name": "createPolicy",
      "outputs": [],
      "stateMutability": "nonpayable",
      "type": "function"
    },
    {
      "inputs": [
        {
          "internalType": "address",
          "name": "",
          "type": "address"
        }
      ],
      "name": "doctorInfo",
      "outputs": [
        {
          "internalType": "string",
          "name": "name",
          "type": "string"
        },
        {
          "internalType": "string",
          "name": "email",
          "type": "string"
        },
        {
          "internalType": "bool",
          "name": "exists",
          "type": "bool"
        }
      ],
      "stateMutability": "view",
      "type": "function"
    },
    {
      "inputs": [
        {
          "internalType": "uint256",
          "name": "",
          "type": "uint256"
        }
      ],
      "name": "doctorList",
      "outputs": [
        {
          "internalType": "address",
          "name": "",
          "type": "address"
        }
      ],
      "stateMutability": "view",
      "type": "function"
    },
    {
      "inputs": [
        {
          "internalType": "string",
          "name": "",
          "type": "string"
        }
      ],
      "name": "emailToAddress",
      "outputs": [
        {
          "internalType": "address",
          "name": "",
          "type": "address"
        }
      ],
      "stateMutability": "view",
      "type": "function"
    },
    {
      "inputs": [
        {
          "internalType": "string",
          "name": "",
          "type": "string"
        }
      ],
      "name": "emailToDesignation",
      "outputs": [
        {
          "internalType": "uint256",
          "name": "",
          "type": "uint256"
        }
      ],
      "stateMutability": "view",
      "type": "function"
    },
    {
      "inputs": [],
      "name": "getAllDoctorsAddress",
      "outputs": [
        {
          "internalType": "address[]",
          "name": "",
          "type": "address[]"
        }
      ],
      "stateMutability": "view",
      "type": "function"
    },
    {
      "inputs": [],
      "name": "getAllInsurersAddress",
      "outputs": [
        {
          "internalType": "address[]",
          "name": "",
          "type": "address[]"
        }
      ],
      "stateMutability": "view",
      "type": "function"
    },
    {
      "inputs": [],
      "name": "getAllPolicies",
      "outputs": [
        {
          "components": [
            {
              "internalType": "uint256",
              "name": "id",
              "type": "uint256"
            },
            {
              "internalType": "address",
              "name": "insurer",
              "type": "address"
            },
            {
              "internalType": "string",
              "name": "name",
              "type": "string"
            },
            {
              "internalType": "uint256",
              "name": "coverValue",
              "type": "uint256"
            },
            {
              "internalType": "uint256",
              "name": "timePeriod",
              "type": "uint256"
            },
            {
              "internalType": "uint256",
              "name": "premium",
              "type": "uint256"
            }
          ],
          "internalType": "struct MediChain.Policy[]",
          "name": "",
          "type": "tuple[]"
        }
      ],
      "stateMutability": "view",
      "type": "function"
    },
    {
      "inputs": [
        {
          "internalType": "address",
          "name": "_addr",
          "type": "address"
        }
      ],
      "name": "getDoctorPatientList",
      "outputs": [
        {
          "internalType": "address[]",
          "name": "",
          "type": "address[]"
        }
      ],
      "stateMutability": "view",
      "type": "function"
    },
    {
      "inputs": [
        {
          "internalType": "address",
          "name": "_addr",
          "type": "address"
        }
      ],
      "name": "getDoctorTransactions",
      "outputs": [
        {
          "internalType": "uint256[]",
          "name": "",
          "type": "uint256[]"
        }
      ],
      "stateMutability": "view",
      "type": "function"
    },
    {
      "inputs": [
        {
          "internalType": "address",
          "name": "_addr",
          "type": "address"
        }
      ],
      "name": "getInsurerClaims",
      "outputs": [
        {
          "internalType": "uint256[]",
          "name": "",
          "type": "uint256[]"
        }
      ],
      "stateMutability": "view",
      "type": "function"
    },
    {
      "inputs": [
        {
          "internalType": "address",
          "name": "_addr",
          "type": "address"
        }
      ],
      "name": "getInsurerPatientList",
      "outputs": [
        {
          "internalType": "address[]",
          "name": "",
          "type": "address[]"
        }
      ],
      "stateMutability": "view",
      "type": "function"
    },
    {
      "inputs": [
        {
          "internalType": "address",
          "name": "_addr",
          "type": "address"
        }
      ],
      "name": "getInsurerPolicyList",
      "outputs": [
        {
          "components": [
            {
              "internalType": "uint256",
              "name": "id",
              "type": "uint256"
            },
            {
              "internalType": "address",
              "name": "insurer",
              "type": "address"
            },
            {
              "internalType": "string",
              "name": "name",
              "type": "string"
            },
            {
              "internalType": "uint256",
              "name": "coverValue",
              "type": "uint256"
            },
            {
              "internalType": "uint256",
              "name": "timePeriod",
              "type": "uint256"
            },
            {
              "internalType": "uint256",
              "name": "premium",
              "type": "uint256"
            }
          ],
          "internalType": "struct MediChain.Policy[]",
          "name": "",
          "type": "tuple[]"
        }
      ],
      "stateMutability": "view",
      "type": "function"
    },
    {
      "inputs": [
        {
          "internalType": "address",
          "name": "_addr",
          "type": "address"
        }
      ],
      "name": "getPatientDoctorList",
      "outputs": [
        {
          "internalType": "address[]",
          "name": "",
          "type": "address[]"
        }
      ],
      "stateMutability": "view",
      "type": "function"
    },
    {
      "inputs": [
        {
          "internalType": "address",
          "name": "_addr",
          "type": "address"
        }
      ],
      "name": "getPatientTransactions",
      "outputs": [
        {
          "internalType": "uint256[]",
          "name": "",
          "type": "uint256[]"
        }
      ],
      "stateMutability": "view",
      "type": "function"
    },
    {
      "inputs": [
        {
          "internalType": "address",
          "name": "paddr",
          "type": "address"
        },
        {
          "internalType": "string",
          "name": "_hash",
          "type": "string"
        },
        {
          "internalType": "uint256",
          "name": "charges",
          "type": "uint256"
        }
      ],
      "name": "insuranceClaimRequest",
      "outputs": [],
      "stateMutability": "nonpayable",
      "type": "function"
    },
    {
      "inputs": [
        {
          "internalType": "address",
          "name": "",
          "type": "address"
        }
      ],
      "name": "insurerInfo",
      "outputs": [
        {
          "internalType": "string",
          "name": "name",
          "type": "string"
        },
        {
          "internalType": "string",
          "name": "email",
          "type": "string"
        },
        {
          "internalType": "bool",
          "name": "exists",
          "type": "bool"
        }
      ],
      "stateMutability": "view",
      "type": "function"
    },
    {
      "inputs": [
        {
          "internalType": "uint256",
          "name": "",
          "type": "uint256"
        }
      ],
      "name": "insurerList",
      "outputs": [
        {
          "internalType": "address",
          "name": "",
          "type": "address"
        }
      ],
      "stateMutability": "view",
      "type": "function"
    },
    {
      "inputs": [
        {
          "internalType": "address",
          "name": "_addr",
          "type": "address"
        }
      ],
      "name": "login",
      "outputs": [
        {
          "internalType": "uint256",
          "name": "",
          "type": "uint256"
        }
      ],
      "stateMutability": "view",
      "type": "function"
    },
    {
      "inputs": [],
      "name": "name",
      "outputs": [
        {
          "internalType": "string",
          "name": "",
          "type": "string"
        }
      ],
      "stateMutability": "view",
      "type": "function"
    },
    {
      "inputs": [
        {
          "internalType": "address",
          "name": "",
          "type": "address"
        }
      ],
      "name": "patientInfo",
      "outputs": [
        {
          "internalType": "string",
          "name": "name",
          "type": "string"
        },
        {
          "internalType": "string",
          "name": "email",
          "type": "string"
        },
        {
          "internalType": "uint256",
          "name": "age",
          "type": "uint256"
        },
        {
          "internalType": "string",
          "name": "record",
          "type": "string"
        },
        {
          "internalType": "bool",
          "name": "exists",
          "type": "bool"
        },
        {
          "internalType": "bool",
          "name": "policyActive",
          "type": "bool"
        },
        {
          "components": [
            {
              "internalType": "uint256",
              "name": "id",
              "type": "uint256"
            },
            {
              "internalType": "address",
              "name": "insurer",
              "type": "address"
            },
            {
              "internalType": "string",
              "name": "name",
              "type": "string"
            },
            {
              "internalType": "uint256",
              "name": "coverValue",
              "type": "uint256"
            },
            {
              "internalType": "uint256",
              "name": "timePeriod",
              "type": "uint256"
            },
            {
              "internalType": "uint256",
              "name": "premium",
              "type": "uint256"
            }
          ],
          "internalType": "struct MediChain.Policy",
          "name": "policy",
          "type": "tuple"
        }
      ],
      "stateMutability": "view",
      "type": "function"
    },
    {
      "inputs": [
        {
          "internalType": "uint256",
          "name": "",
          "type": "uint256"
        }
      ],
      "name": "patientList",
      "outputs": [
        {
          "internalType": "address",
          "name": "",
          "type": "address"
        }
      ],
      "stateMutability": "view",
      "type": "function"
    },
    {
      "inputs": [
        {
          "internalType": "string",
          "name": "_email",
          "type": "string"
        }
      ],
      "name": "permitAccess",
      "outputs": [],
      "stateMutability": "nonpayable",
      "type": "function"
    },
    {
      "inputs": [
        {
          "internalType": "uint256",
          "name": "",
          "type": "uint256"
        }
      ],
      "name": "policyList",
      "outputs": [
        {
          "internalType": "uint256",
          "name": "id",
          "type": "uint256"
        },
        {
          "internalType": "address",
          "name": "insurer",
          "type": "address"
        },
        {
          "internalType": "string",
          "name": "name",
          "type": "string"
        },
        {
          "internalType": "uint256",
          "name": "coverValue",
          "type": "uint256"
        },
        {
          "internalType": "uint256",
          "name": "timePeriod",
          "type": "uint256"
        },
        {
          "internalType": "uint256",
          "name": "premium",
          "type": "uint256"
        }
      ],
      "stateMutability": "view",
      "type": "function"
    },
    {
      "inputs": [
        {
          "internalType": "string",
          "name": "_name",
          "type": "string"
        },
        {
          "internalType": "uint256",
          "name": "_age",
          "type": "uint256"
        },
        {
          "internalType": "uint256",
          "name": "_designation",
          "type": "uint256"
        },
        {
          "internalType": "string",
          "name": "_email",
          "type": "string"
        },
        {
          "internalType": "string",
          "name": "_hash",
          "type": "string"
        }
      ],
      "name": "register",
      "outputs": [],
      "stateMutability": "nonpayable",
      "type": "function"
    },
    {
      "inputs": [
        {
          "internalType": "uint256",
          "name": "_id",
          "type": "uint256"
        }
      ],
      "name": "rejectClaimsByInsurer",
      "outputs": [],
      "stateMutability": "nonpayable",
      "type": "function"
    },
    {
      "inputs": [
        {
          "internalType": "address",
          "name": "_addr",
          "type": "address"
        }
      ],
      "name": "revokeAccess",
      "outputs": [],
      "stateMutability": "nonpayable",
      "type": "function"
    },
    {
      "inputs": [
        {
          "internalType": "uint256",
          "name": "_id",
          "type": "uint256"
        }
      ],
      "name": "settleTransactionsByPatient",
      "outputs": [],
      "stateMutability": "payable",
      "type": "function"
    },
    {
      "inputs": [],
      "name": "transactionCount",
      "outputs": [
        {
          "internalType": "uint256",
          "name": "",
          "type": "uint256"
        }
      ],
      "stateMutability": "view",
      "type": "function"
    },
    {
      "inputs": [
        {
          "internalType": "uint256",
          "name": "",
          "type": "uint256"
        }
      ],
      "name": "transactions",
      "outputs": [
        {
          "internalType": "address",
          "name": "sender",
          "type": "address"
        },
        {
          "internalType": "address",
          "name": "receiver",
          "type": "address"
        },
        {
          "internalType": "uint256",
          "name": "value",
          "type": "uint256"
        },
        {
          "internalType": "bool",
          "name": "settled",
          "type": "bool"
        }
      ],
      "stateMutability": "view",
      "type": "function"
    }
  ],
  "bytecode": "0x60806040523480156200001157600080fd5b506040805180820190915260098082526836b2b234b1b430b4b760b91b6020909201918252620000449160009162000055565b506000600581905560065562000138565b8280546200006390620000fb565b90600052602060002090601f016020900481019282620000875760008555620000d2565b82601f10620000a257805160ff1916838001178555620000d2565b82800160010185558215620000d2579182015b82811115620000d2578251825591602001919060010190620000b5565b50620000e0929150620000e4565b5090565b5b80821115620000e05760008155600101620000e5565b600181811c908216806200011057607f821691505b602082108114156200013257634e487b7160e01b600052602260045260246000fd5b50919050565b61378a80620001486000396000f3fe6080604052600436106101f95760003560e01c806378ffb2921161010d578063a9bc9933116100a0578063cd10b92e1161006f578063cd10b92e14610669578063ea78dcbf14610689578063eeec248a146106ca578063fa465485146106ea578063fae0aee2146106fd57600080fd5b8063a9bc9933146105fd578063b77bf6001461061d578063babb1d4114610633578063bbd245ea1461065357600080fd5b806385e68531116100dc57806385e68531146105095780639493ba55146105295780639ace38c214610549578063a888c2cd146105c857600080fd5b806378ffb292146104a157806379c88894146104c1578063840c9ad2146104d4578063844ff83d146104f457600080fd5b80634ab72aae116101905780635497dacf1161015f5780635497dacf146103ee5780636142d2dc1461040e57806363ff69ba146104415780636586a91f1461046157806371343df61461048157600080fd5b80634ab72aae146103725780634d70c524146103945780634fdc9ea9146103a95780634ff9290b146103db57600080fd5b80631bf04073116101cc5780631bf04073146102d457806331c15f9d1461030357806335a6861a14610330578063457e55211461035057600080fd5b806306fdde03146101fe57806310d2581114610229578063127ca4b41461026f5780631707c2e3146102a7575b600080fd5b34801561020a57600080fd5b5061021361071d565b604051610220919061313f565b60405180910390f35b34801561023557600080fd5b506102616102443660046131fc565b8051602081830181018051600d8252928201919093012091525481565b604051908152602001610220565b34801561027b57600080fd5b5061028f61028a366004613239565b6107ab565b6040516001600160a01b039091168152602001610220565b3480156102b357600080fd5b506102c76102c2366004613269565b6107d5565b6040516102209190613284565b3480156102e057600080fd5b506102f46102ef366004613269565b61087f565b604051610220939291906132c8565b34801561030f57600080fd5b5061032361031e366004613269565b6109b4565b6040516102209190613300565b34801561033c57600080fd5b5061026161034b366004613269565b610a67565b34801561035c57600080fd5b50610365610b0d565b604051610220919061339c565b34801561037e57600080fd5b5061039261038d3660046133fe565b610c3c565b005b3480156103a057600080fd5b50610323610e3d565b3480156103b557600080fd5b506103c96103c4366004613239565b610e9f565b60405161022096959493929190613452565b6103926103e9366004613239565b610f7a565b3480156103fa57600080fd5b50610323610409366004613269565b6110b9565b34801561041a57600080fd5b5061042e610429366004613269565b61116b565b604051610220979695949392919061349a565b34801561044d57600080fd5b5061039261045c366004613239565b61141d565b34801561046d57600080fd5b5061036561047c366004613269565b6115d1565b34801561048d57600080fd5b506102c761049c366004613269565b611751565b3480156104ad57600080fd5b5061028f6104bc366004613239565b6117f9565b6103926104cf366004613239565b611809565b3480156104e057600080fd5b506102f46104ef366004613269565b611ab9565b34801561050057600080fd5b50610323611ad4565b34801561051557600080fd5b50610392610524366004613269565b611b34565b34801561053557600080fd5b50610323610544366004613269565b611bde565b34801561055557600080fd5b5061059b610564366004613239565b60086020526000908152604090208054600182015460028301546003909301546001600160a01b0392831693919092169160ff1684565b604080516001600160a01b0395861681529490931660208501529183015215156060820152608001610220565b3480156105d457600080fd5b506105e86105e3366004613239565b611c90565b6040516102209998979695949392919061350b565b34801561060957600080fd5b5061039261061836600461357e565b611e01565b34801561062957600080fd5b5061026160065481565b34801561063f57600080fd5b5061028f61064e366004613239565b612811565b34801561065f57600080fd5b5061026160055481565b34801561067557600080fd5b506102c7610684366004613269565b612821565b34801561069557600080fd5b5061028f6106a43660046131fc565b8051602081830181018051600c825292820191909301209152546001600160a01b031681565b3480156106d657600080fd5b506103926106e53660046135d5565b6128c9565b6103926106f8366004613239565b612c94565b34801561070957600080fd5b506103926107183660046131fc565b612d8d565b6000805461072a90613671565b80601f016020809104026020016040519081016040528092919081815260200182805461075690613671565b80156107a35780601f10610778576101008083540402835291602001916107a3565b820191906000526020600020905b81548152906001019060200180831161078657829003601f168201915b505050505081565b600281815481106107bb57600080fd5b6000918252602090912001546001600160a01b0316905081565b60606001600160a01b0382166107ea57600080fd5b6001600160a01b03821660009081526009602052604090206004015460ff1661081257600080fd5b6001600160a01b038216600090815260096020908152604091829020600b018054835181840281018401909452808452909183018282801561087357602002820191906000526020600020905b81548152602001906001019080831161085f575b50505050509050919050565b600a6020526000908152604090208054819061089a90613671565b80601f01602080910402602001604051908101604052809291908181526020018280546108c690613671565b80156109135780601f106108e857610100808354040283529160200191610913565b820191906000526020600020905b8154815290600101906020018083116108f657829003601f168201915b50505050509080600101805461092890613671565b80601f016020809104026020016040519081016040528092919081815260200182805461095490613671565b80156109a15780601f10610976576101008083540402835291602001916109a1565b820191906000526020600020905b81548152906001019060200180831161098457829003601f168201915b5050506002909301549192505060ff1683565b60606001600160a01b0382166109c957600080fd5b6001600160a01b0382166000908152600b602052604090206002015460ff166109f157600080fd5b6001600160a01b0382166000908152600b60209081526040918290206004018054835181840281018401909452808452909183018282801561087357602002820191906000526020600020905b81546001600160a01b03168152600190910190602001808311610a3e5750505050509050919050565b60006001600160a01b038216610a7c57600080fd5b6001600160a01b03821660009081526009602052604090206004015460ff1615610aa857506001919050565b6001600160a01b0382166000908152600a602052604090206002015460ff1615610ad457506002919050565b6001600160a01b0382166000908152600b602052604090206002015460ff1615610b0057506003919050565b506000919050565b919050565b60606004805480602002602001604051908101604052809291908181526020016000905b82821015610c335760008481526020908190206040805160c081018252600686029092018054835260018101546001600160a01b03169383019390935260028301805492939291840191610b8490613671565b80601f0160208091040260200160405190810160405280929190818152602001828054610bb090613671565b8015610bfd5780601f10610bd257610100808354040283529160200191610bfd565b820191906000526020600020905b815481529060010190602001808311610be057829003601f168201915b50505050508152602001600382015481526020016004820154815260200160058201548152505081526020019060010190610b31565b50505050905090565b6000845111610c4a57600080fd5b60008311610c5757600080fd5b60008111610c6457600080fd5b60008211610c7157600080fd5b33610c7b57600080fd5b336000908152600b602052604090206002015460ff16610c9a57600080fd5b6040805160c08101825260048054808352336020808501918252948401898152606085018990526080850188905260a0850187905260018301845560009390935283517f8a35acfbc15ff81a39ae7d344fd709f28e8600b4aa8c65c6b64bfe7fe36bd19b600690930292830190815590517f8a35acfbc15ff81a39ae7d344fd709f28e8600b4aa8c65c6b64bfe7fe36bd19c830180546001600160a01b0319166001600160a01b039092169190911790559151805193948594610d83937f8a35acfbc15ff81a39ae7d344fd709f28e8600b4aa8c65c6b64bfe7fe36bd19d019290910190612fd3565b5060608201516003828101919091556080830151600483015560a090920151600590910155336000908152600b602090815260408083209093018054600180820183559184529282902085516006909402019283558482015190830180546001600160a01b0319166001600160a01b039092169190911790559183015180518493610e15926002850192910190612fd3565b50606082015181600301556080820151816004015560a0820151816005015550505050505050565b60606003805480602002602001604051908101604052809291908181526020018280548015610e9557602002820191906000526020600020905b81546001600160a01b03168152600190910190602001808311610e77575b5050505050905090565b60048181548110610eaf57600080fd5b60009182526020909120600690910201805460018201546002830180549294506001600160a01b039091169291610ee590613671565b80601f0160208091040260200160405190810160405280929190818152602001828054610f1190613671565b8015610f5e5780601f10610f3357610100808354040283529160200191610f5e565b820191906000526020600020905b815481529060010190602001808311610f4157829003601f168201915b5050505050908060030154908060040154908060050154905086565b33610f8457600080fd5b336000908152600b602052604090206002015460ff16610fa357600080fd5b6000818152600760205260409020600201546001600160a01b03163314610fc957600080fd5b60008181526007602052604090206006015460ff1615610fe857600080fd5b600081815260076020526040902060060154610100900460ff161561100c57600080fd5b6000818152600760209081526040808320546001600160a01b0316808452600a9092529091206002015460ff1661104257600080fd5b6040516001600160a01b038216903480156108fc02916000818181858888f19350505050158015611077573d6000803e3d6000fd5b50506000908152600760208181526040808420600681018054600160ff1991821681179092559190940154855260089092529092206003018054909216179055565b60606001600160a01b0382166110ce57600080fd5b6001600160a01b0382166000908152600a602052604090206002015460ff166110f657600080fd5b6001600160a01b0382166000908152600a602090815260409182902060040180548351818402810184019094528084529091830182828015610873576020028201919060005260206000209081546001600160a01b03168152600190910190602001808311610a3e5750505050509050919050565b60096020526000908152604090208054819061118690613671565b80601f01602080910402602001604051908101604052809291908181526020018280546111b290613671565b80156111ff5780601f106111d4576101008083540402835291602001916111ff565b820191906000526020600020905b8154815290600101906020018083116111e257829003601f168201915b50505050509080600101805461121490613671565b80601f016020809104026020016040519081016040528092919081815260200182805461124090613671565b801561128d5780601f106112625761010080835404028352916020019161128d565b820191906000526020600020905b81548152906001019060200180831161127057829003601f168201915b5050505050908060020154908060030180546112a890613671565b80601f01602080910402602001604051908101604052809291908181526020018280546112d490613671565b80156113215780601f106112f657610100808354040283529160200191611321565b820191906000526020600020905b81548152906001019060200180831161130457829003601f168201915b50505060048401546040805160c081018252600587018054825260068801546001600160a01b03166020830152600788018054979860ff808716996101009097041697509550919390928401919061137890613671565b80601f01602080910402602001604051908101604052809291908181526020018280546113a490613671565b80156113f15780601f106113c6576101008083540402835291602001916113f1565b820191906000526020600020905b8154815290600101906020018083116113d457829003601f168201915b505050505081526020016003820154815260200160048201548152602001600582015481525050905087565b3361142757600080fd5b336000908152600b602052604090206002015460ff1661144657600080fd5b6000818152600760205260409020600201546001600160a01b0316331461146c57600080fd5b60008181526007602052604090206006015460ff161561148b57600080fd5b600081815260076020526040902060060154610100900460ff16156114af57600080fd5b6000818152600760209081526040808320600101546001600160a01b031680845260099092529091206004015460ff166114e857600080fd5b600082815260076020818152604080842060068101805461ff001916610100908117909155938101805486526008845282862080546001600160a01b0389166001600160a01b03199091168117825580885260098087529488209254600b84018054600181018255908a52878a2001559096529190925260048101549193926005909101910460ff1661159e576001600160a01b0384166000908152600960205260409020600401805461ff0019166101001790555b600085815260076020526040812060050154600383018054919290916115c59084906136c2565b90915550505050505050565b60606001600160a01b0382166115e657600080fd5b6001600160a01b0382166000908152600b602052604090206002015460ff1661160e57600080fd5b6001600160a01b0382166000908152600b6020908152604080832060030180548251818502810185019093528083529193909284015b828210156117465760008481526020908190206040805160c081018252600686029092018054835260018101546001600160a01b0316938301939093526002830180549293929184019161169790613671565b80601f01602080910402602001604051908101604052809291908181526020018280546116c390613671565b80156117105780601f106116e557610100808354040283529160200191611710565b820191906000526020600020905b8154815290600101906020018083116116f357829003601f168201915b50505050508152602001600382015481526020016004820154815260200160058201548152505081526020019060010190611644565b505050509050919050565b60606001600160a01b03821661176657600080fd5b6001600160a01b0382166000908152600a602052604090206002015460ff1661178e57600080fd5b6001600160a01b0382166000908152600a602090815260409182902060030180548351818402810184019094528084529091830182828015610873576020028201919060005260206000209081548152602001906001019080831161085f5750505050509050919050565b600381815481106107bb57600080fd5b600454811061181757600080fd5b3361182157600080fd5b3360009081526009602052604090206004015460ff1661184057600080fd5b343331101561184e57600080fd5b60048181548110611861576118616136da565b600091825260208220600160069092020101546040516001600160a01b03909116913480156108fc02929091818181858888f193505050501580156118aa573d6000803e3d6000fd5b50600481815481106118be576118be6136da565b60009182526020808320600690920290910154338352600990915260409091206005015560048054829081106118f6576118f66136da565b60009182526020808320338452600990915260409092206002600690920290920101805460079092019161192990613671565b611934929190613057565b5060048181548110611948576119486136da565b600091825260208083206003600690930201919091015433835260099091526040909120600801556004805482908110611984576119846136da565b60009182526020808320600160069384029091010154338452600990915260409092200180546001600160a01b0319166001600160a01b0390921691909117905560048054829081106119d9576119d96136da565b60009182526020808320600460069093020182015433845260099182905260409093200191909155805482908110611a1357611a136136da565b6000918252602080832060056006909302019190910154338352600990915260408220600a8101919091556004908101805461ff0019166101001790558054600b92919084908110611a6757611a676136da565b6000918252602080832060016006909302018201546001600160a01b031684528381019490945260409092018120600401805492830181558152919091200180546001600160a01b0319163317905550565b600b6020526000908152604090208054819061089a90613671565b60606002805480602002602001604051908101604052809291908181526020018280548015610e95576020028201919060005260206000209081546001600160a01b03168152600190910190602001808311610e77575050505050905090565b6001600160a01b038116611b4757600080fd5b33611b5157600080fd5b6001600160a01b0381166000908152600a602052604090206002015460ff16611b7957600080fd5b3360009081526009602052604090206004015460ff16611b9857600080fd5b6001600160a01b0381166000908152600a60205260409020611bbd9060040133612e90565b50336000908152600960205260409020611bda90600c0182612e90565b5050565b60606001600160a01b038216611bf357600080fd5b6001600160a01b03821660009081526009602052604090206004015460ff16611c1b57600080fd5b6001600160a01b038216600090815260096020908152604091829020600c0180548351818402810184019094528084529091830182828015610873576020028201919060005260206000209081546001600160a01b03168152600190910190602001808311610a3e5750505050509050919050565b60076020526000908152604090208054600182015460028301546003840180546001600160a01b0394851695938516949092169291611cce90613671565b80601f0160208091040260200160405190810160405280929190818152602001828054611cfa90613671565b8015611d475780601f10611d1c57610100808354040283529160200191611d47565b820191906000526020600020905b815481529060010190602001808311611d2a57829003601f168201915b505050505090806004018054611d5c90613671565b80601f0160208091040260200160405190810160405280929190818152602001828054611d8890613671565b8015611dd55780601f10611daa57610100808354040283529160200191611dd5565b820191906000526020600020905b815481529060010190602001808311611db857829003601f168201915b505050600584015460068501546007909501549394909360ff8083169450610100909204909116915089565b33611e0b57600080fd5b6001600160a01b038316611e1e57600080fd5b336000908152600a602052604090206002015460ff16611e3d57600080fd5b6001600160a01b03831660009081526009602052604090206004015460ff16611e6557600080fd5b6000825111611e7357600080fd5b6000805b336000908152600a6020526040902060040154811015611ef357336000908152600a6020526040902060040180546001600160a01b038716919083908110611ec157611ec16136da565b6000918252602090912001546001600160a01b03161415611ee157600191505b80611eeb816136f0565b915050611e77565b5080611efe57600080fd5b6001600160a01b03841660009081526009602090815260409091208451611f2d92600390920191860190612fd3565b506001600160a01b038416600090815260096020526040902060040154610100900460ff168015611f7857506001600160a01b03841660009081526009602052604090206008015415155b1561272f576001600160a01b038085166000908152600960205260409020600681015460089091015491169083116122f35760068054906000611fba836136f0565b9091555050604080516080810182526001600160a01b038084168083523360208085018281528587018a815260006060880181815260068054835260088087528b84209a518b54908b166001600160a01b0319918216178c55955160018c81018054928d169290981691909117909655935160028b015590516003998a01805491151560ff19909216919091179055948152600a845288812085549801805480850182559082528482200197909755938652600b82528686208354930180549182018155865281862001919091559189168352600990915291902001546120a290849061370b565b6001600160a01b03861660009081526009602052604090206008018190556120e9576001600160a01b0385166000908152600960205260409020600401805461ff00191690555b600580549060006120f9836136f0565b909155505060408051610120810182523381526001600160a01b038781166020808401829052918516838501526000908152600990915291909120600701805460608301919061214890613671565b80601f016020809104026020016040519081016040528092919081815260200182805461217490613671565b80156121c15780601f10612196576101008083540402835291602001916121c1565b820191906000526020600020905b8154815290600101906020018083116121a457829003601f168201915b505050918352505060208082018790526040808301879052600060608085018290526080850182905260065460a090950194909452600554815260078352819020845181546001600160a01b03199081166001600160a01b039283161783558685015160018401805483169184169190911790559286015160028301805490941691161790915591830151805161225e9260038501920190612fd3565b506080820151805161227a916004840191602090910190612fd3565b5060a082015160058281019190915560c083015160068301805460e086015161ffff1990911692151561ff001916929092176101009215158302179055909201516007909101556001600160a01b0382166000908152600b60209081526040822083549301805460018101825590835291200155612729565b60068054906000612303836136f0565b9091555050604080516080810182526001600160a01b03871680825233602080840191909152600091825260099052829020600801549091820190612348908661370b565b815260006020918201819052600680548252600883526040808320855181546001600160a01b03199081166001600160a01b039283161783558787015160018085018054909316918416919091179091558784015160028401556060909701516003928301805460ff1916911515919091179055338552600a8652828520845492018054808901825590865286862001919091558a1683526009845282208154600b909101805495860181558352928220909301919091558154919061240d836136f0565b9091555050604080516080810182526001600160a01b038381168083523360208085018281528b8516600090815260098352878120600890810154888a01908152606089018381526006805485529286528a842099518a546001600160a01b0319908116918b16919091178b5594516001808c01805490971691909a161790945551600289015591516003978801805460ff1916911515919091179055928352600a825286832081549601805480870182559084528284200195909555918152600b8252938420835493018054928301815584528320015560058054916124f3836136f0565b909155505060408051610120810182523381526001600160a01b038781166020808401829052918516838501526000908152600990915291909120600701805460608301919061254290613671565b80601f016020809104026020016040519081016040528092919081815260200182805461256e90613671565b80156125bb5780601f10612590576101008083540402835291602001916125bb565b820191906000526020600020905b81548152906001019060200180831161259e57829003601f168201915b505050918352505060208082018790526001600160a01b038089166000908152600983526040808220600801548186015260608086018390526080860183905260065460a09096019590955260055482526007845290819020855181549084166001600160a01b031991821617825586850151600183018054918616918316919091179055918601516002820180549190941692169190911790915591830151805161266d9260038501920190612fd3565b5060808201518051612689916004840191602090910190612fd3565b5060a082015160058281019190915560c083015160068301805460e086015161ffff1990911692151561ff001990811693909317610100911515820217909155909301516007909201919091556001600160a01b038381166000908152600b602090815260408083208554950180546001810182559084528284200194909455918916815260099091529081206008810191909155600401805490911690555b5061280b565b6006805490600061273f836136f0565b9091555050604080516080810182526001600160a01b03808716808352336020808501828152858701898152600060608801818152600680548352600886528a832099518a54908a166001600160a01b0319918216178b55945160018b8101805492909b1691909616179098559151600289015590516003978801805491151560ff19909216919091179055928352600a825286832085549601805480830182559084528284200195909555918152600982529384209154600b90920180549384018155845290922001555b50505050565b600181815481106107bb57600080fd5b60606001600160a01b03821661283657600080fd5b6001600160a01b0382166000908152600b602052604090206002015460ff1661285e57600080fd5b6001600160a01b0382166000908152600b602090815260409182902060050180548351818402810184019094528084529091830182828015610873576020028201919060005260206000209081548152602001906001019080831161085f5750505050509050919050565b336128d357600080fd5b60008551116128e157600080fd5b60008251116128ef57600080fd5b60006001600160a01b0316600c8360405161290a9190613722565b908152604051908190036020019020546001600160a01b03161461292d57600080fd5b600d8260405161293d9190613722565b90815260200160405180910390205460001461295857600080fd5b3360008181526009602052604090206004015460ff161561297857600080fd5b6001600160a01b0381166000908152600a602052604090206002015460ff16156129a157600080fd5b6001600160a01b0381166000908152600b602052604090206002015460ff16156129ca57600080fd5b8360011415612b1657600085116129e057600080fd5b60008251116129ee57600080fd5b6001600160a01b038116600090815260096020908152604090912087519091612a1b9183918a0190612fd3565b508351612a319060018301906020870190612fd3565b50600281018690558251612a4e9060038301906020860190612fd3565b50600481018054600160ff199091168117909155805480820182556000919091527fb10e2d527612073b26eecdfd717e6a320cf44b4afac2b0732d9fcbe2b7fa0cf60180546001600160a01b0319166001600160a01b0384161790556040518290600c90612abd908790613722565b908152602001604051809103902060006101000a8154816001600160a01b0302191690836001600160a01b0316021790555084600d85604051612b009190613722565b9081526040519081900360200190205550612c8c565b8360021415612bd2576001600160a01b0381166000908152600a6020908152604090912087519091612b4c9183918a0190612fd3565b508351612b629060018301906020870190612fd3565b5060028181018054600160ff199091168117909155815490810182556000919091527f405787fa12a823e0f2b7631cc41b3ba8828b3321ca811111fa75cd3aa3bb5ace0180546001600160a01b0319166001600160a01b0384161790556040518290600c90612abd908790613722565b83600314156101f9576001600160a01b0381166000908152600b6020908152604090912087519091612c089183918a0190612fd3565b508351612c1e9060018301906020870190612fd3565b50600281018054600160ff1990911681179091556003805491820181556000527fc2575a0e9e593c00f959f8c92f12db2869c3395a3b0502d05e2516446f71f85b0180546001600160a01b0319166001600160a01b0384161790556040518290600c90612abd908790613722565b505050505050565b33612c9e57600080fd5b3360009081526009602052604090206004015460ff16612cbd57600080fd5b6000818152600860205260409020546001600160a01b03163314612ce057600080fd5b60008181526008602052604090206003015460ff1615612cff57600080fd5b6000818152600860209081526040808320600101546001600160a01b0316808452600a9092529091206002015460ff16612d3857600080fd5b6040516001600160a01b038216903480156108fc02916000818181858888f19350505050158015612d6d573d6000803e3d6000fd5b50506000908152600860205260409020600301805460ff19166001179055565b6000815111612d9b57600080fd5b33612da557600080fd5b6000600c82604051612db79190613722565b908152604051908190036020019020546001600160a01b0316905080612ddc57600080fd5b3360009081526009602052604090206004015460ff16612dfb57600080fd5b6001600160a01b0381166000908152600a602052604090206002015460ff16612e2357600080fd5b6001600160a01b03166000818152600a60209081526040808320338085526009845291842060049091018054600181810183559186528486200180546001600160a01b03199081169094179055600c90910180549182018155845291909220018054909116909117905550565b60006001600160a01b038216612ea557600080fd5b60008060005b8554811015612f0557846001600160a01b0316868281548110612ed057612ed06136da565b6000918252602090912001546001600160a01b03161415612ef357600192508091505b80612efd816136f0565b915050612eab565b5081612f1057600080fd5b845460011015612f995784548590612f2a9060019061370b565b81548110612f3a57612f3a6136da565b9060005260206000200160009054906101000a90046001600160a01b0316858281548110612f6a57612f6a6136da565b9060005260206000200160006101000a8154816001600160a01b0302191690836001600160a01b031602179055505b84805480612fa957612fa961373e565b600082815260209020600019908201810180546001600160a01b0319169055019055949350505050565b828054612fdf90613671565b90600052602060002090601f0160209004810192826130015760008555613047565b82601f1061301a57805160ff1916838001178555613047565b82800160010185558215613047579182015b8281111561304757825182559160200191906001019061302c565b506130539291506130d2565b5090565b82805461306390613671565b90600052602060002090601f0160209004810192826130855760008555613047565b82601f106130965780548555613047565b8280016001018555821561304757600052602060002091601f016020900482015b828111156130475782548255916001019190600101906130b7565b5b8082111561305357600081556001016130d3565b60005b838110156131025781810151838201526020016130ea565b8381111561280b5750506000910152565b6000815180845261312b8160208601602086016130e7565b601f01601f19169290920160200192915050565b6020815260006131526020830184613113565b9392505050565b634e487b7160e01b600052604160045260246000fd5b600082601f83011261318057600080fd5b813567ffffffffffffffff8082111561319b5761319b613159565b604051601f8301601f19908116603f011681019082821181831017156131c3576131c3613159565b816040528381528660208588010111156131dc57600080fd5b836020870160208301376000602085830101528094505050505092915050565b60006020828403121561320e57600080fd5b813567ffffffffffffffff81111561322557600080fd5b6132318482850161316f565b949350505050565b60006020828403121561324b57600080fd5b5035919050565b80356001600160a01b0381168114610b0857600080fd5b60006020828403121561327b57600080fd5b61315282613252565b6020808252825182820181905260009190848201906040850190845b818110156132bc578351835292840192918401916001016132a0565b50909695505050505050565b6060815260006132db6060830186613113565b82810360208401526132ed8186613113565b9150508215156040830152949350505050565b6020808252825182820181905260009190848201906040850190845b818110156132bc5783516001600160a01b03168352928401929184019160010161331c565b8051825260018060a01b0360208201511660208301526000604082015160c0604085015261337260c0850182613113565b9050606083015160608501526080830151608085015260a083015160a08501528091505092915050565b6000602080830181845280855180835260408601915060408160051b870101925083870160005b828110156133f157603f198886030184526133df858351613341565b945092850192908501906001016133c3565b5092979650505050505050565b6000806000806080858703121561341457600080fd5b843567ffffffffffffffff81111561342b57600080fd5b6134378782880161316f565b97602087013597506040870135966060013595509350505050565b8681526001600160a01b038616602082015260c06040820181905260009061347c90830187613113565b606083019590955250608081019290925260a0909101529392505050565b60e0815260006134ad60e083018a613113565b82810360208401526134bf818a613113565b905087604084015282810360608401526134d98188613113565b9050851515608084015284151560a084015282810360c08401526134fd8185613341565b9a9950505050505050505050565b6001600160a01b038a81168252898116602083015288166040820152610120606082018190526000906135408382018a613113565b905082810360808401526135548189613113565b60a0840197909752505092151560c084015290151560e08301526101009091015295945050505050565b60008060006060848603121561359357600080fd5b61359c84613252565b9250602084013567ffffffffffffffff8111156135b857600080fd5b6135c48682870161316f565b925050604084013590509250925092565b600080600080600060a086880312156135ed57600080fd5b853567ffffffffffffffff8082111561360557600080fd5b61361189838a0161316f565b96506020880135955060408801359450606088013591508082111561363557600080fd5b61364189838a0161316f565b9350608088013591508082111561365757600080fd5b506136648882890161316f565b9150509295509295909350565b600181811c9082168061368557607f821691505b602082108114156136a657634e487b7160e01b600052602260045260246000fd5b50919050565b634e487b7160e01b600052601160045260246000fd5b600082198211156136d5576136d56136ac565b500190565b634e487b7160e01b600052603260045260246000fd5b6000600019821415613704576137046136ac565b5060010190565b60008282101561371d5761371d6136ac565b500390565b600082516137348184602087016130e7565b9190910192915050565b634e487b7160e01b600052603160045260246000fdfea26469706673582212205e90ca1fc1870c488f29e2a45e2b64bf2819e9fb3a68614bd022c1107880ace664736f6c63430008090033",
  "linkReferences": {},
  "deployedLinkReferences": {}
}